:4000000000800020110000000D0800000D08000080B500AF024A034B1B68136000F000FCBC760040FA46004001000000002000400100000000200140010000000048004047
:400040000100000000480140010000000100000008000223000008760800032300001076080004230000287608000523000030760500062300002070050007230000307065
:4000800005000823000060700500FE230000707010000A220000005110000B220000205130000C22000040511000FE220000F05180070E220000000000060F220000000AA7
:4000C000800110220000001680001122000000418000122200000042800013220000004380041422000000440001FE220000004C070016230000185206001723000060524E
:4001000020001823000070642000FE230000706580001A230000000880001B230000800880001C230000001480001D230000801480001E230000001880001F230000801815
:40014000800020230000001A800021230000801A10002223000010501000232300000050800024230000004D800025230000804D800026230000001B800027230000801BF7
:400180008000282300000015800029230000801580002A230000001980002B230000801980002C230000801780002D230000000980002E230000800980002F2300008007BF
:4001C00080003023000000498000312300008049800032230000804880003323000080438000342300008042800035230000804180003623000000408000FE230000804064
:4002000010B5054C237833B9044B13B10448AFF300800123237010BD5881FF1F0000000028120000084B10B51BB108490848AFF300800848036803B910BD074B002BFBD0B8
:40024000BDE81040184700BF000000005C81FF1F28120000C880FF1F0000000080B582B000AF00F073FB254800F0ECFB244800F0E9FB4FF4FA6000F04FFF00F04BF800F0DA
:400280007DF800F07FFC1F4B1B780121184600F085FD1D4B1B780121184600F07FFD00BF00F08EFC034603F00103002BF8D0174800F0C8FB0023FB7108E0FB79144AD35C92
:4002C000184600F0A5FBFB790133FB71FB79072BF3D9002000F090FC012000F03FFF002000F08AFC102000F087FC00F077FC00F09DFC4FF47A7000F00FFFEAE72C12000040
:40030000381200008D81FF1F8081FF1F401200008481FF1F80B500AF4FF4804341F6FF720121012000F0C0FC03461A46104B1A7000F056FE03461A460E4B1A700D4B1878EC
:400340000123FE22082100F079FE0A4B1B780A4A91B246F24452184600F0B0FE044B1A78044B1B781946104600F0CCFD00BF80BD8081FF1F8C81FF1FCC80FF1F80B500AF9B
:4003800041F6FF734FF480420121012000F07CFB03461A46104B1A7000F022FE03461A460E4B1A700D4B18780223FE22082100F045FE0A4B1B780A4A92B246F25451184677
:4003C00000F07CFE044B1A78044B1B781946104600F098FD00BF80BD8D81FF1F8181FF1F8481FF1F80B582B000AF786039603A680021786800F00FFF00BF0837BD4680BDC5
:4004000080B584B000AFF860B9607A607A68B968F86800F0F5FE00BF1037BD4680BD00BF80B483B000AF0346FB71FEE780B582B000AF454B00221A60444B10221A70444B42
:4004400001221A70434B00221A70434B4FF4D8721A80424B01221A70414B03221A70414B414A92B21A80414B47F608021A80404B00221A803F4B4FF480421A803E4B0922E5
:400480001A703E4B0D221A703D4B15221A703D4B19221A70BFF35F8F3B4B01221A70BFF35F8F00BF2C4B1B889BB2002BFAD100237B600DE07B68DA00344B13441946344AF0
:4004C0007B6852F823309BB20B807B6801337B607B68352BEED9BFF35F8F2B4B01221A70BFF35F8F00BF2B4B1B78DBB203F00103002BF8D100BF284B1B78DBB203F00103BC
:40050000002BF8D100BF254B1B78DBB203F00103002BF8D100BF224B1B78DBB203F00103002BF8D100BF1F4B1B78DBB203F00103002BF8D106224FF090411B48FFF760FF32
:4005400000BF0837BD4680BD7881FF1F00760040107000401970004000780040027800400378004004780040500000000678004004760040067600402970004039700040B8
:400580006970004079700040147000400C7800405012000018700040287000403870004068700040787000401051014080B582B000AF344B4FF49C721A80334B18221A70E3
:4005C000324B40F2ED221A80314B18221A70314B02221A704FF0402308221A702E4B03221A702E4B2E4A1278D2B21A702D4B08221A802D4B41F251221A800023FB70192374
:400600007B6013E0FB785B00DAB2284B1B78DBB203F00103DBB21343DBB203F00303FB70782000F0B1FD7B68013B7B607B68002B02D0FB78032BE5D17B68002B02D10320C9
:40064000FFF7EEFE1A4B4FF480721A80184B07221A70184B00221A70174B48221A70144B00221A70154B02221A70154A144B1B78DBB243F00303DBB2137000BF0837BD46A8
:4006800080BD00BF804000408240004084400040864000400043004000420040A14600400801004922420040204200402542004004400040064000400840004001400040B4
:4006C000A243004080B483B000AF0B4B1B78FB710A4AFB7903F00703DBB21370084AFB791B09DBB21370074B44221A7000BF0C37BD4680BC704700BFCF0100496E58004083
:400700006F5800407658004080B500AF72B62E4B61221A70FFF74AFF2B4B81221A702B4A2A4B1B78DBB243F00403DBB21370FFF77DFE04212648FFF755FE04212548FFF707
:4007400051FE254A244B1B78DBB243F00203DBB21370224A214B1B78DBB243F00203DBB213701F4A1E4B1B78DBB243F04003DBB213701C4A1B4B1B78DBB243F01003DBB26D
:4007800013700A2218491948FFF73AFE082218491848FFF735FE082217491848FFF730FE174A174B1B78DBB243F00803DBB21370144B01221A70FFF785FF0E2208491248E6
:4007C000FFF71EFE00BF80BD00480040E846004000760040087600400350014013500140A0430040C2430040780E0048C0510040840E0048125100408C0E004832510040A0
:400800002243004004000840B043004080B500AF00F0CAFC03461B680C2B00D1FEE7FEE780B586B000AF224B7B61224B3B61204B7B6135E03B691B68FB603B695B68BB6090
:400840003B699B683B6000237B600CE0FB681A68BB681A60BB680433BB60FB680433FB607B6804337B607A683B689A42EED13B69DB683B6000237B6008E0BB6800221A6024
:40088000BB680433BB607B6804337B607A683B689A42F2D13B6910333B617B69013B7B617B69002BC6D100F085FCFFF7D7FCFEE7010000005013000080B582B000AF194B88
:4008C000194A1A60194A194B1B6843F40073136000237B600FE07B68032B04D8144A7B6852F8233000E0134B13497A6841F822307B6801337B607B682F2BECD90F4B1B7814
:40090000DAB20F4B1A700F4B0B4A1A60FFF7FCFE00F016FA0C4B00221A6000BF0837BD4680BD00BF0CED00E00004FA0514ED00E0000000000D0800000080FF1FBC7600405C
:40094000C480FF1F08ED00E0C080FF1F80B500AF064B1B78002B04D100F00AF8034B01221A7000F025F800BF80BD00BF7C81FF1F80B400AF094B72221A70094B20221A70D5
:40098000084B06221A70084B47221A70074B00221A7000BFBD4680BC704700BF89650040896400402B6500403B6500408864004080B582B000AF00F0EFFB0346FB71114A43
:4009C000104B1B78DBB243F02003DBB213700E4A0D4B1B78DBB243F01003DBB213700B4A0A4B1B78DBB243F01003DBB2137000F08DF9FB79184600F0D3FB00BF0837BD46C9
:400A000080BD00BF99650040996400409864004080B483B000AF0346FB7100BF074B1B78DBB203F00403002BF8D1054AFB79137000BF0C37BD4680BC704700BF6864004010
:400A40004864004080B584B000AF78600023FB810C4B1B78002B10D009E0FB897A6813441B781846FFF7D4FFFB890133FB81FB897A6813441B78002BEFD100BF1037BD462E
:400A800080BD00BF7C81FF1F90B585B002AF0446084611461A462346FB710346BB710B46BB8013467B80104B00221A700E4B1878BA79F9790023019300230093002300F066
:400AC0003FFA094B1B787A88B988184600F0DEF9054B1B780221184600F0A6F9024B1B7818460C37BD4690BDD480FF1F80B500AF084B0F221A7000F0A7F800F061F800F07E
:400B00006DF8054B04221A70044B20221A7000BF80BD00BF846500408B6500408565004080B582B000AF00F037FB0346FB71124A114B1B78DBB243F02003DBB213700F4A73
:400B40000E4B1B78DBB243F01003DBB213700C4A0B4B1B78DBB243F01003DBB21370FB79184600F01DFB00F01FF800F023F800BF0837BD4680BD00BF946500409B65004022
:400B80009565004080B500AF064B1B78002B04D1FFF7ACFF034B01221A70FFF7C1FF00BF80BD00BF7E81FF1F80B400AF00BFBD4680BC704780B400AF00BFBD4680BC7047D9
:400BC00080B483B000AF044B1B78FB71FB7918460C37BD4680BC70476B65004080B483B000AF044B1B78FB71FB7918460C37BD4680BC70476565004080B483B000AF03469E
:400C0000FB7100BF074B1B78DBB203F00403002BF8D0054AFB79137000BF0C37BD4680BC704700BF6B6500404465004080B483B000AF044B1B78FB71FB7918460C37BD46B8
:400C400080BC70475465004080B582B000AF01E0124B1B78124B1B78DBB203F02003002BF6D100F099FA0346FB710E4A0D4B1B78DBB243F00103DBB213700A4A094B1B7892
:400C8000DBB223F00103DBB21370FB79184600F087FA00BF0837BD4680BD00BF54650040656500409465004090B585B002AF0446084611461A462346FB710346BB710B46EF
:400CC000BB8013467B80104B01221A700E4B1878BA79F9790023019300230093002300F02FF9094B1B787A88B988184600F0CEF8054B1B780221184600F096F8024B1B7827
:400D000018460C37BD4690BDD580FF1F80B400AF094A094B1B78DBB243F00103DBB21370064A064B1B78DBB243F00103DBB2137000BFBD4680BC7047A2430040B243004047
:400D400080B483B000AF134B7F221A70124B80221A707F23FB710CE0FB79DB0003F1804303F5F043FA79013AD2B21A70FB79013BFB71FB79002BEFD1FB79DB0003F18043E3
:400D800003F5F04300221A7000BF0C37BD4680BC704700BFD980FF1FD880FF1F80B485B000AF03460A46FB711346BB710123FB60FB79172B2FD8BB79002B0ED0FB791A010E
:400DC000184B1344FA791101164A0A441278D2B242F02002D2B21A700DE0FB791A01114B1344FA7911010F4A0A441278D2B222F02002D2B21A70FB791A010A4B1344FA793D
:400E00001101084A0A441278D2B242F00102D2B21A700023FB60FB6818461437BD4680BC704700BF1070004080B485B000AF03460A46FB711346BB710123FB60FB79172BD9
:400E40001BD8FB791A01104B13441B78DBB223F00E03FB72FB791A010B4B1344BA795200D2B252B202F00E0251B297F90B200A4352B2D2B21A700023FB60FB68184614379B
:400E8000BD4680BC704700BF1070004080B485B000AF0346FB710B46BB8013467B800123FB60BB8841F6FF72934202D14FF40053BB807B8841F6FF72934202D14FF4005344
:400EC0007B80FB79172B17D8FB79DB0003F1804303F5EC430433BB60BB68BA881A80FB79DB0003F1804303F5EC430633BB60BB687A881A800023FB60FB6818461437BD4607
:400F000080BC704780B485B000AF03460A46FB711346BB710123FB60FB79172B07D8FB791A01064B1344BA795A720023FB60FB6818461437BD4680BC704700BF10700040D3
:400F400090B484B000AF0446084611461A462346FB710346BB710B467B7113463B710123FB60FB79172B34D8FB79DB0003F1804303F5EC43BA7902F07F02D1B27A79D20112
:400F8000D2B20A43D2B21A70FB79DB0003F1804303F5EC433A7E1201D1B23A7902F00F02D2B20A43D2B25A70FB79DB0003F1804303F5EC433A7F02F00F02D2B29A70FB7917
:400FC000DB0003F1804303F5EC430022DA700023FB60FB6818461037BD4690BC704700BF80B582B000AFFF23FB7100F0D5F80346BB71104B1B78182B12D90F4B1B78FB7136
:401000000C4B1B78013BDAB20A4B1A70FB79DB0003F1804303F5F0431B78DAB2064B1A70BB79184600F0BCF8FB7918460837BD4680BD00BFD880FF1FD980FF1F90B484B049
:4010400000AF0446084611461A462346FB710346BB800B46BB711346FB700123FB6097F90730002B23DBBB8823F47F6323F00F039BB2002B1BD1FB79DB0003F1804303F5A6
:40108000F043BB60BB68BA881A80FB79DB0003F1804303F5F043BA799A70FB79DB0003F1804303F5F043FA78DA700023FB60FB6818461037BD4690BC704700BF80B485B0D4
:4010C00000AF0346FB710B46BB8013467B800123FB6097F90730002B17DBFB79DB0003F1804303F5F0430433BB60BB68BA881A80FB79DB0003F1804303F5F0430633BB6042
:40110000BB687A881A800023FB60FB6818461437BD4680BC704700BF80B582B000AF786008E00C4B1B68184600F02EF87B68A3F500437B607B68B3F5004FF2D8064B1B687C
:401140007A6802FB03F3184600F01EF800BF0837BD4680BDEC80FF1FE480FF1F80B582B000AF0346FB80FB88054A127802FB03F3184600F009F800BF0837BD4680BD00BF77
:40118000E880FF1F000000000230800803D000BF01380046FCD17047EFF3108072B6704780F31088704700BF014B1868704700BF5081FF1F0E4B70B51E460E4C0025E41AF8
:4011C000A410A54204D056F8253098470135F8E700F0ACF8084B094C1E46E41AA4100025A54204D056F8253098470135F8E770BD38130000381300003813000040130000BF
:4012000010B5431E0A44914204D011F8014B03F8014FF8E710BD03460244934202D003F8011BFAE77047000000000000535049204D617374657200006578616D706C6500FE
:401240004D617374657220527820646174613A0028000000300000003800000040000000480000004800000048000000480000007881FF1F7881FF1F7881FF1F7881FF1FD8
:401280007881FF1F7881FF1F7881FF1F7881FF1F7881FF1F7881FF1F7881FF1F7881FF1F080000481000004818040048380400481800004898000048180100489801004864
:4012C00018020048980200481803004898030048580400486804004878040048F804004878050048F805004878060048F806004878070048F807004878080048F8080048D0
:4013000078090048F8090048780A0048F80A0048780B0048F80B0048780C0048F80C0048780D0048F80D004843000000F8B500BFF8BC08BC9E46704725020000B908000095
:40134000F8B500BFF8BC08BC9E4670470102000060130000C880FF1F9000000038000000000000000001020304050607FFFF0000807F00000300000000366E01C05D00006C
:40138000180000000000E02E0000000000000000000000000000000000000000000000000000000000000000281300000000000000000000000000000000000000000000CC
:4013C00000000000000000000000000000000000000000000000000000000000000000000000000000000000F080FF1F00000000000000000000000000000000000000005F
:4014000000000000000000000000000000000000000000000000000000000000000000000000000000000000000000000000000000000000000000000000000000000000AC
:40144000000000000000000000000000000000000000000000000000000000000000000000000000000000000000000000000000000000000000000000000000000000006C
:40148000000000000000000000000000000000000000000000000000000000000000000000000000000000000000000000000000000000000000000000000000000000002C
:4014C00000000000000000000000000000000000000000000000000000000000000000000000000000000000000000000000000000000000000000000000000000000000EC
:020000040003F7
:0200000480007A
:40000000050000000000000050100000000000000080000040000000000000000000000009001000000000000000030010000C0014000000100000001C0002000C00110004
:4000400000010000000000001F00000100000000000000800000000423060000000BC00E19FFFFFF0000F0440C000000010000000404040400000001000000000000C000B1
:40008000000040020000000000000000000000000000000000000000000A00142913060C000310140000102006002900061300040200000800000000040000000700282092
:4000C000000009152F0000000E10200F07201000080002080000401100000000000000000000000000000000000000001800000004040004000000010000000000000000A7
:400100000000000000000000000000000000000000000000000000001000000002021D0003010C1401021A30000010201030000203321400103200000003001810000000F5
:400140000003000C0032000000001F20001F000000200800000000041502300004BCFED02FFFFFFF2200F00C040000000000022804040404111100010000C0004001101112
:40018000C001001140014001000000000000000000000000000000000000002000000000000300000000000000000018006D001200160061000000000000000000000000BA
:4001C000000000000070000C004000000007003800200000000000000000000000000000000000000000000000000000400004000004000410100001000000000000000077
:40020000000000000000000000000000000000000000000000000000000000020000000000680015000000000056000900680013000000160000000000000000000000004F
:400240000000002900000000000000070060001B00200088000000100000000000000000000000000000000000000000000000000004000000000001000000000000000016
:4002800000000000000000000000000000000000000000000000000081060000F3010C009C014300000163009F0020000306000004000006FF00000608020000020400008C
:4002C0000C060000000080061000EC010F00000600002800000001002304060001C00E0006FFFFFF62A0F0410C000000000002130404040400000001000000000000400285
:400300000010301000101012000000000000000000000000000000000021009A007300000273000000000100040000000010006401420019000000000000000000000000C3
:400340000100000000000000008004700303000C20000000000004400000000000000000000000000000000000000000000000000404000000000001000000000000000009
:400380000000000000000000000000000000000000000000000000001408411368130200100068006A1100026A020011001300006A1D000200030004150020000C131100D6
:4003C0006A000000001100080400781E020301000000080C00005100030000000040000000FF07FF4020F0050800000009000400040404041110000140A840200000000049
:400400000000000000000000000000000000000000000000000000000000000000000000000000000000000000000000000000000F38000000000000000000000000000075
:400440000000000000000000000000000F000000007200000000000003000000000000000000020003000000010000000000000000000000010000000000000000000000F1
:4004800000000000000000000000800000000000000000000000000000000000000000000000000000000000000000000000000000000000000000000000000000000000BC
:4004C00000000000000000000000000000000000000000000000000000000000000000000000000000000000040000000000000000000000000000000400000000000000F4
:400500000000000000008000000000000000000000000000000000000000000000000000000000000000000000000000000000000000000000000000000000000800000033
:4005400000000000000000000000000000000000000000000100000000000200000000000000000000000000000000000000000000000000000000000000000990012002BC
:40058000001040000011000800000800A80000000014000010000A0101280200000010100000000000008010102800000840001202140000000200880000000000000004E2
:4005C0000080010000000002000000000000000800000000008200280000000000000042000000000000000000000000000000000000000000000000000704100800004021
:4006000020419038810122C0803440000100000000000005101002000010080000080289000000000000000000940000400000000000000000000000F3005A0072000000D3
:4006400000005000F600D700400000000000F000900000000000000030008000E1000000000000003000000000000000000000000000000000000000009800400000000004
:4006800000A0500000000000200000000000000010080000000000000030201000108202084001000080000020000046080020020060000400200001AA0000000000000096
:4006C0000080000500000000000050030000000000000000000000001000000000001092204052440000000000C00000000000000000000000000000A09001000040000049
:40070000081041040200E2000000000000001080000000000000000000000000200000000000000000000000200000000000100000000000000000000F000F000400000076
:4007400000001D00EF00AE000F00080000000000F2000000000000000000440008001600000000000000000000000000000000000000000000000000148000801000000828
:4007800080488401000000009800020000000000140120000000000000040022020008051880020000002008000850000010080100940001202000028D040000000000004D
:4007C0004020000000000000000000400000000000010000000000000000000000000000009400000000000088001400000000000000000000000000000000000000000028
:4008000000000000000000000000C00006001480002000000010202B10400000C00008010000000000000000020000080000000000000000000000000F000F000F00000093
:4008400000002F00EE00AF000F0004000000010000000000000000000000000000000000000000000000000000000000000000000000000000000000000000000000000098
:4008800000000000000000000000000000000080000000000000000000000000000000000000000000000000000000000000000000000000000000000000000000000000B8
:4008C0000000000000000000000000000000000000000000000000000000000000000000000000000000000000000000000000000000000000000000842000000010000044
:40090000000094000004400A8080002800000005006480000000400020040044004004000004200000000008001008040000000002081480000000000000000000002400CE
:40094000000000000000080800000000000010180000000202000850004000340000000000000000000000000000000000000000000000000000000000000000000000006F
:4009800000000000000000000000000000000000000000000000000000000000000000000000000000000000000000000000000000000000000000004700FE003F000000B3
:4009C0000000260006000F00600020000000F1000C0000000000000000000000000000000000000000000000000000000000000000000000000000000000000000000040FF
:400A000000000000000000000000000000000000000000000000000000000000000000000000000000000000000000000000000000000000000000000000000000000000B6
:400A40000000000000000000000000000000000000000000000000000000000000000000000000000000000000000000000000000000000000000000000000001000000066
:400A80000000000000000000000000000000000000000000000000000000000000000000000000000000000000000000000000000000000000000000000000000000000036
:400AC00000000000000000000000000000000000000000000100000000000001000002000000000000000000000000000000000000000000000000001100000000040000DD
:400B0000000000000000020100000000000400000000000000000000000000000000000000000000000000000000000000000000000000000000000080000000000000002E
:400B40000000000000000000000000000000C000800000000000000000008000800040000000000000000000000000000000000000000000000000000000000000000000F5
:400B80000000000000000000000000000004000000000000000000000000000000000000000000000000000000000000000000000000000000000000000000000000000031
:400BC00000000000000000000000000000000000000000000000000000000000000000000000000000000000000000000000000000000000000000000000000000000010E5
:400C000000000000000000000000000000040010000000000000000000000000000000000000000000000000000000000000000000000000000000000000000000000000A0
:400C40000000000000000000000000000000000000000000000000000000100000000000000000000000000000000000000000000000000000000000000000000000000064
:400C80000000000000000000000000000004001000000000000000000000000000000000000000000000000000000000000000000000000000000000000000000000000020
:400CC00000000000000000000000000000000000000000000000000000000000000000000000000000000000000000000000000000000000000000000000000000000000F4
:400D0000000000000000000000000000000400100000000000000000000000000000000000000000000000000000000000000000000000000000000000000000000000009F
:400D40000000000000000000000000000000000000000000000000000000000000000000000000000000000000000000000000000000000000000000000000000000000073
:400D8000000000000000000000000000000000000000000000000000000000000000000000000000000000000000000000000000000400000000001000000000000000001F
:400DC00000000000000000000000000000000000000000000000000000000000000000000000000000000000000000000000000000000000000000000000000000000000F3
:400E000000000000000000000000000000000000000000000000000000000000000000000000000000000000000000000000000000000000000000000000000000000000B2
:400E400000000000000060000000000000000000000000000000000000000000000000000000000000000000000000000000000000000000000000008000408080008000D2
:400E800000000000000B0B000000000008707000700000000000000000000000000000000000000000000000000000000000000000000000000000000000000000000000C4
:400EC00000000000000000000000000000000000000000000000000000000000000000000000000000000000000000000000000000000000000000000000000000000000F2
:400F000000000000000000000000000000000000000000000000000000000000000000000000000000000000000000000000000000000000000000000000000000000000B1
:400F40000000000000000000000000000000000000000000000000000000000000000000000000000000000000000000000000000000000000000000000000000000000071
:400F80000000000000000000000000000000000000000000000000000000000000000000000000000000000000000000000000000000000000000000000000000000000031
:0200000490006A
:0400000000004004B8
:0200000490105A
:04000000BC90ACAF55
:0200000490303A
:02000000618518
:0200000490402A
:4000000000000000000000000000000000000000000000000000000000000000000000000000000000000000000000000000000000000000000000000000000000000000C0
:400040000000000000000000000000000000000000000000000000000000000000000000000000000000000000000000000000000000000000000000000000000000000080
:400080000000000000000000000000000000000000000000000000000000000000000000000000000000000000000000000000000000000000000000000000000000000040
:4000C0000000000000000000000000000000000000000000000000000000000000000000000000000000000000000000000000000000000000000000000000000000000000
:0200000490501A
:0C00000000012E16106900012E1D71EE8B
:00000001FF