:400000000080002011000000410900004109000080B500AF024A034B1B68136000F09AFCBC760040FA46004001000000002000400100000000200140010000000048004043
:400040000100000000480140010000000100000008000223000008760800032300001076080004230000287608000523000030760500062300002070050007230000307065
:4000800005000823000060700500FE230000707040000A220000305110000B220000C0511000FE220000F05100020D220000000080010E220000000600080F220000000865
:4000C0000008102200000014000111220000004080001222000000420007132200000043000214220000004C1000FE220000105007001623000000522000FE23000070640E
:400100008000182300000002800019230000800280001A230000000480001B230000800410001C230000005080001D230000800780001E230000000580001F2300008005CE
:4001400080002023000000038000212300008003800022230000804280002323000000418000FE230000804110B5054C237833B9044B13B10448AFF300800123237010BDE0
:400180005881FF1F0000000014500000084B10B51BB108490848AFF300800848036803B910BD074B002BFBD0BDE81040184700BF000000005C81FF1F14500000C880FF1FD9
:4001C0000000000080B582B000AF03463960FB80012000F019FD0021002000F0A5FC0C4800F0DAFCFB88184600F052FE0021012000F09AFC386800F0CFFC4FF4FA6000F0A8
:4002000099FE012000F000FD00BF0837BD4680BD1850000080B586B000AF0123FB8200F071FC02F0EFFDFB8A5A1CFA8297491846FFF7C8FF0021002000F076FC3B1D0922E5
:400240001946002002F09EFF0346002B0BD0904800F0A2FC0021012000F066FC3B1D184600F09AFC09E08B4800F096FC0021012000F05AFC884800F08FFC4FF4FA6000F04D
:4002800059FEFB8A5A1CFA8284491846FFF79AFF0021002000F048FC814800F07DFC3B1D184600F0C3FF0346002B07D10021012000F03AFC7B4800F06FFC06E000210120AD
:4002C00000F032FC784800F067FC4FF4FA6000F031FEFB8A5A1CFA8274491846FFF772FF0021002000F020FC714802F08FFB0346002B03D16F4800F04FFC09E06E4800F0CD
:400300004BFC0021012000F00FFC6C4800F044FC4FF4FA6000F00EFEFB8A5A1CFA8268491846FFF74FFF6749674802F08DFE38610021002000F0F8FB3B69002B57D06348B8
:4003400000F02AFC604800F027FC0021012000F0EBFB5F4800F020FC4FF4FA6000F0EAFD012000F051FC0021002000F0DDFB0A225849386903F029F80346002B0DD0564895
:4003800000F00AFC504800F007FC0021012000F0CBFB524800F000FC09E0514800F0FCFB0021012000F0C0FB4E4800F0F5FB4FF4FA6000F0BFFD012000F026FC00210020B5
:4003C00000F0B2FB386902F079FD0346002B03D1454800F0E1FB14E0444800F0DDFB0021012000F0A1FB424800F0D6FB09E0324800F0D2FB0021012000F096FB3C4800F0FE
:40040000CBFB4FF4FA6000F095FD012000F0FCFBFB8A5A1CFA8237491846FFF7D3FE0021002000F081FB3449274802F04EFA0346002B0AD1314800F0AFFB0021012000F04C
:4004400073FB2F4800F0A8FB09E02E4800F0A4FB0021012000F068FB254800F09DFB4FF4FA6000F067FD012000F0CEFB0021002000F05AFB244800F08FFB0021012000F023
:4004800053FB224800F088FBFEE700BF205000003050000040500000505000006050000070500000805000008C50000094500000A0500000A4500000B4500000C85000004D
:4004C000D4500000DC500000CC80FF1FE0500000E8500000F450000000510000105100002051000030510000405100005051000060510000685100007051000080510000C4
:400500008C5100009C510000AC510000BC51000080B584B000AFF860B9607A607A68B968F86804F06BFD00BF1037BD4680BD00BF80B483B000AF0346FB71FEE780B483B0A9
:4005400000AF434B00221A60424B10221A70424B01221A70414B00221A70414B4FF48C721A80404B01221A703F4B03221A703F4B3F4A92B21A803F4B47F608021A803E4B2A
:4005800000221A803D4B4FF480421A803C4B09221A703C4B0C221A703B4B15221A703B4B17221A70BFF35F8F394B01221A70BFF35F8F00BF2A4B1B889BB2002BFAD100239F
:4005C0007B600DE07B68DA00324B13441946324A7B6852F823309BB20B807B6801337B607B68222BEED9BFF35F8F294B01221A70BFF35F8F00BF294B1B78DBB203F00103DB
:40060000002BF8D100BF264B1B78DBB203F00103002BF8D100BF234B1B78DBB203F00103002BF8D100BF204B1B78DBB203F00103002BF8D100BF1D4B1B78DBB203F00103E0
:40064000002BF8D100BF0C37BD4680BC704700BF7881FF1F00760040107000401970004000780040027800400378004004780040500000000678004004760040067600400C
:4006800029700040397000406970004079700040147000400C780040C8510000187000402870004038700040687000407870004080B582B000AF434B1B78BB70424B0022BC
:4006C0001A80424B58221A70414B02221A704FF0402308221A703F4BF3221A70394B03221A703D4B84221A703C4B05221A703C4B7B6006E04FF4F07000F052FC7B68013BAB
:400700007B607B68002B06D0344B1B78DBB203F02003002BEED02B4ABB781370314B03221A70314B314A1278D2B21A70304B08221A80304B41F251221A800023FB701923B3
:400740007B6014E0FB785B00DAB22B4B1B78DBB203F00103DBB21343DBB203F00303FB704FF4F07000F01CFC7B68013B7B607B68002B02D0FB78032BE4D17B68002B02D133
:400780000320FFF7D5FE1D4B4FF480721A801B4B07221A701A4B00221A701A4B48221A70164B00221A70184B02221A70174A174B1B78DBB243F00103DBB2137000BF08374D
:4007C000BD4680BD984600408040004082400040004300400A4300400943004008430040A086010000420040A14600400801004922420040204200402542004004400040DF
:40080000064000400840004001400040A243004080B483B000AF0B4B1B78FB710A4AFB7903F00703DBB21370084AFB791B09DBB21370074B44221A7000BF0C37BD4680BC47
:40084000704700BFCF0100496E5800406F5800407658004080B500AF72B62A4A294B1B78DBB243F00403DBB21370FFF767FE264A254B1B78DBB243F00203DBB21370234A60
:40088000224B1B78DBB243F00203DBB21370204A1F4B1B78DBB243F04003DBB213701D4A1C4B1B78DBB243F01003DBB21370082219491A48FFF72CFE082219491948FFF7B4
:4008C00027FE082218491948FFF722FE184A184B1B78DBB243F00803DBB21370154B61221A70FFF7E5FE134B81221A70124B01221A70FFF78DFF0E2205491048FFF708FE6F
:4009000000BF80BDE84600400350014013500140A0430040C2430040380600480251004040060048125100404806004822510040224300400048004004000840B04300406E
:4009400080B500AF04F02EFB03461B680C2B00D1FEE7FEE780B586B000AF224B7B61224B3B61204B7B6135E03B691B68FB603B695B68BB603B699B683B6000237B600CE0E0
:40098000FB681A68BB681A60BB680433BB60FB680433FB607B6804337B607A683B689A42EED13B69DB683B6000237B6008E0BB6800221A60BB680433BB607B6804337B60A5
:4009C0007A683B689A42F2D13B6910333B617B69013B7B617B69002BC6D104F0E9FAFFF719FCFEE7010000000455000080B582B000AF184B184A1A60184A184B1B6843F4B9
:400A00000073136000237B600FE07B68032B04D8134A7B6852F8233000E0124B12497A6841F822307B6801337B607B682F2BECD90E4B1B78DAB20E4B1A700E4B0A4A1A609E
:400A4000FFF708FF0C4B00221A6000BF0837BD4680BD00BF0CED00E00004FA0514ED00E000000000410900000080FF1FBC760040C480FF1F08ED00E0C080FF1F80B500AFF9
:400A8000282000F057FA032000F0D0F9052000F051FA032000F0CAF90F2000F04BFA032000F0C4F9012000F045FA022000F0BEF9052000F03FFA062000F0A6F80E2000F02E
:400AC000A3F82C2000F0A0F8082000F09DF8012000F09AF80C2000F097F8032000F094F8052000F027FA00BF80BD00BF80B500AF0C2000F089F8024B01221A7000BF80BD85
:400B00007C81FF1F80B500AF064B1B78002B04D1FFF7B4FF034B01221A70FFF7E7FF00BF80BD00BF7D81FF1F80B582B000AF03460A46FB711346BB71FB79032B26D801A298
:400B400052F823F0550B0000630B0000710B00007F0B0000BB79803BDBB2184600F054F815E0BB79403BDBB2184600F04DF80EE0BB796C3BDBB2184600F046F807E0BB796D
:400B80002C3BDBB2184600F03FF800E000BF00BF0837BD4680BD00BF80B584B000AF78600123FB737B681B78BB730BE0BB7B184600F010F8FB7B7A6813441B78BB73FB7B9D
:400BC0000133FB73BB7B002BF0D100BF1037BD4680BD00BF80B584B000AF0346FB7100F02DF8FB791B09FB73FB7B184600F0E2F8FB7903F00F03FB73FB7B184600F0DAF829
:400C000000BF1037BD4680BD80B584B000AF0346FB7100F013F8FB791B09FB73FB7B184600F004F9FB7903F00F03FB73FB7B184600F0FCF800BF1037BD4680BD80B582B093
:400C400000AF4FF4CA737B60554A554B1B78DBB223F07F03DBB21370524B1B78DBB223F00F03FB704F4AFB7843F00F03DBB213704D4B1B78DBB223F00F03FB704A4AFB7869
:400C800013704A4B1B78DBB223F00F03FB70474AFB781370424A424B1B78DBB223F02003DBB213703E4A3E4B1B78DBB243F04003DBB21370002000F05FF9394A384B1B78AE
:400CC000DBB243F01003DBB21370012000F054F9374B1B78FB70324A314B1B78DBB223F01003DBB21370002000F046F9FB7803F00803FB702A4A2A4B1B78DBB243F010036B
:400D0000DBB21370012000F037F9254A244B1B78DBB223F01003DBB21370FB78002B02D10A2000F029F97B68013B7B60FB78002B02D07B68002BBDD1194A194B1B78DBB294
:400D400023F04003DBB21370154A154B1B78DBB223F07F03DBB21370124A124B1B78DBB223F00F03DBB213700F4B1B78DBB223F00F03FB700C4AFB7843F00F03DBB2137053
:400D80000A4B1B78DBB223F00F03FB70074AFB7843F00F03DBB2137000BF0837BD4680BD205100402251004023510040245100402151004080B582B000AF0346FB711A4A29
:400DC000194B1B78DBB243F02003DBB21370164A154B1B78DBB223F04003DBB21370002000F0CAF8104A104B1B78DBB223F00F03DBB213700C490C4B1B78DAB2FB79134352
:400E0000DBB243F01003DBB20B70012000F0B4F8054A054B1B78DBB223F01003DBB2137000BF0837BD4680BD2051004080B582B000AF0346FB71154A144B1B78DBB223F07A
:400E40006003DBB21370114A104B1B78DBB223F00F03DBB213700D490C4B1B78DAB2FB791343DBB243F01003DBB20B70012000F083F8064A054B1B78DBB223F01003DBB284
:400E8000137000BF0837BD4680BD00BF2051004080B586B000AF78600A23FB75FB7D07F118021344002203F8102CFB7D013BFB751CE079681E4BA3FB0123DA0813469B0036
:400EC00013445B00CA1AD3B23033BB75FB7D07F118021344BA7D03F8102C7B68144AA2FB0323DB087B60FB7D013BFB757B68092BDFD879680E4BA3FB0123DA0813469B006F
:400F000013445B00CA1AD3B23033BB75FB7D07F118021344BA7D03F8102CFB7D07F1080213441846FFF738FE00BF1837BD4680BDCDCCCCCC80B582B000AF786008E00C4BAD
:400F40001B68184600F02CF87B68A3F500437B607B68B3F5004FF2D8064B1B687A6802FB03F3184600F01CF800BF0837BD4680BDE480FF1FDC80FF1F80B582B000AF03469B
:400F8000FB80FB88054A127802FB03F3184600F007F800BF0837BD4680BD00BFE080FF1F0230800803D000BF01380046FCD17047EFF3108072B6704780F31088704700BF7E
:400FC000F0B505468DB0002800F0248100210C22684601F093FB00210C2203A801F08EFB0021142206A801F089FB002328460B9301F02FFD00286C46C0F20C81284601F0D9
:401000003BFD2846694601F0FDFD0028C0F20281824B019903F1480218681E46884202D80C339342F8D1B388019F0B96B7FBF3F7384600F039F9BDF808100446C9007843B6
:4010400001F045FC202C4FEA4000B3680CD021301A461446D218D11A8142FAD9241A5A1E22421DD0E4181BE01C4601301A460127D118824202D801370A46F9E70198B18832
:40108000C31A9A1AB2FBF1F0BDF808104001C90001F01DFCB36840005F433F1AADF81070019B47F6A7721B1B934201D801220EE0B3F5803F01D2042209E0B3F5800F01D27B
:4010C000062204E0564A934294BF0B220C228DF82020544A019E0693079402F1500017681146B74202D808328242F8D1621E0879D2184B79ADF8000000FB03F1B4FBF1FCF9
:4011000001FB1C4EADF824C0B2FBF1FC01FB1C21BEFBF3FEB1FBF3F18DF821E08DF82610B4FBF3FEB2FBF3F103FB1E4403FB1122013401328DF822408DF82720ADF828C008
:40114000ADF8023001F002FE0446002862D0364B00271A8A002101F0D1FA84F8BE719DF8212004F5DE7384F8BF21BDF824009DF8221000F4407001F03F01033341EA90014C
:401180005970BDF824105A1C5170531C9DF820205E1C5A709DF82620731C7270BDF828109DF8272001F4407102F03F0242EA91025A70581CBDF8283043700799023001F050
:4011C000ACFB06F10800069901F0A7FB04F5FF704AF6552101F0ABFB2846394622463B4601F0DAFCB84214BF4FF0FF363E46204601F0C2FD76B94FF40073ADF80E300B9B7C
:401200000CA99B88284621F8243DCDF814D002F079FC01E04FF0FF300DB0F0BD54520000FF03FB009C520000A491FF1F10B5002101F0D8FFBDE81040FFF7C2BE0C2802D022
:40124000102805D102E001EB510070474800704788007047036840689B685B6AB0FBF3F0704710B5046D836CE4B199421AD3E318994217D2013B99420CBF4FF0FF31013168
:4012800072B190F836300C2B02D0102B05D102E00905090D03E089B201E021F070411160012010BD002010BD40F6F473984201D80C2070474FF6F473984294BF1020202074
:4012C0007047027F8368023902FB01307047431EDBB21F2B13D92F2811D007D826280ED002D8222809D10AE02A3804E03A2804D33F2804D95B38022801D90120704700200A
:401300007047034638B30B2A01DD0B2200E0013A00201CE0082809D191F808C0BCF1200F0DD04FF02E0C03F801CB08E038B991F800C0BCF1050F02D1ACF1200C04E011F88B
:4013400000C0BCF1200F01D003F801CB01309042E0DB00221A7070472DE9F04788B005AE04460D463046114600229A469DF84490BDF84C80BDF8507000F01EFD08B100242D
:4013800013E020462946524600F00FFE044660B1129B31460093109A4B46CDF80480029700F0C6FF284601F0FBFC204608B0BDE8F08710B59DF80C400394BDE8104000F03A
:4013C000D9BD00002DE9F04F144E87B0109DDDF848809DF84440376800950194CDF8088005937F68934682468946B84732680C4BDDF814C09A420DD060B9504649465A46D1
:40140000634610951194CDF8488007B0BDE8F04FFFF7CFBF07B0BDE8F08F00BFE880FF1FEC52000070B5C37A04460B7010300D4601F081FA064604F10E0001F07CFA40EAA9
:401440000640686004F1120001F075FA0004A86004F1180001F06FFA064604F1160001F06AFA40EA0640E86004F11C0001F04AFA286170BD2DE9F845038A04460E469246CE
:4014800087692BB907F118002146626900F064FC38465146224600F0E7FC0546204600F065FCD5B12B78C3B1E52BF1D095F80B80B8F10F0FECD018F00808E9D17069294651
:4014C000B269FFF71EFF28463146FFF7ABFF238A404601332382BDE8F8854FF0FF30BDE8F885022201F0EABD2DE9F04790F8366005460C46304611469146FFF79FFEB5F8D3
:401500001E80AB6A20FA08F89845824602D30020BDE8F0876B8E05F118079844204641463A46FFF7DEFF204601F0EFFD18B14FF0FF30BDE8F087AA8BA168013A0AEA020AEF
:401540001FFA8AFA92450AEB01031AF8015001D0013309E0204608F101013A46FFF7C1FF204601F0D2FDA36818780C2E45EA002009D0202E0FD15D7840EA05409D7840EA42
:401580000560BDE8F08719F0010F02D00009BDE8F0870005000DBDE8F08700002DE9F34190F83630144603FB02F7828B8846D200511E0F40D71B0546B7FBF3F7002618E081
:4015C0000E4B93F88030022B05D12846214601AAFFF747FE28B9284641462246FFF784FF0190019B0134A34205D10136B6B2013F1C46002FE4DC3046BDE8FC81A491FF1FAA
:401600002DE9F34105460E46144698461F681CE0114B93F88030022B05D12846214601AAFFF71FFE28B9284631462246FFF75CFF0190737B0BB100240BE0AA6B019B01322C
:40164000934204D81BB1013F1C46002FE0D1C8F800702046BDE8FC81A491FF1F73B504680E4623681BB9FFF7F5FD013039E0FFF7F1FD236998423CBF4FF0FF332361236921
:40168000B3F1FF3F04D12268013323616261E3832169E28B451A954234BF2B4613463BB16069C918C018D21A60612161E283ED1A0DB9284615E002AB43F8045D3146626961
:4016C000A068FFF79DFF6061019B21690246C91A4D19256123B9A0683146FFF75FFFE08301987CBD13B502AC44F8043D2346FFF787FF019B002B18BF00201CBD2DE9F041B8
:401700000746884615461E460024384641462A460123FFF7E7FF30B1BA6B0134944201D80546F2E7002406B134602846BDE8F0812DE9F74F04460D461E461746002A00F061
:40174000B98090F836001146FFF778FDB4F81EA0A36A20FA0AFA9A45814680F0AB80638E04F118089A44284651464246FFF7B9FE284601F0CAFC6B7B002B40F09B80A38B0D
:40178000AA68013B09EA03091FFA89F303EB020926B9216C8F4203D2276401E0791C216494F8361010290AD0202911D1484601F0A9F831460746484601F0AFF84EE04846E0
:4017C00001F0B9F8B1B20746484601F0B0F845E028460092019301F0E3FA009A019B17F0010F13F802B01BD00BF00F0141EA06119954A28B013A934202D009F1010309E0C4
:4018000028460AF101014246FFF76BFE284601F07CFCAB681F7832093F0147EA1B171CE09E54A28B013A934202D009F1010309E028460AF101014246FFF753FE284601F07A
:4018400064FCAB681A78310A02F00F0701F00F0122F00F024BEA07270A431A70284601F09FFA94F83630202B18D1B4F84620AAB9B4F84410284601F021FC284601F045FC13
:40188000A8684FF0FF3100F5F47001F046F8284601F086FA4FF00103A4F84630E36BB3F1FF3F09D00FB10133E3632EB1E36B013BE36301E0012000E00020BDE8FE8F6FF068
:4018C0007043FFF735BF70B5036D04460E4693B1002506E0AA1820463146531CFFF728FF0135236DA26C013B9D42F3D320463146AA18FFF7E4FF0023A3642365E3646365B0
:4019000070BD70B506460D461C460AB1FFF710FF304629462246BDE87040FFF7D0BF00002DE9F84504460E4615461F46002B36D01C4B93F88030022B31D190F83680114625
:401940004046FFF77BFCB4F81CA00AF1FF3A2AEA000A4FEACA0ABAFBF8FAAA44A8460EE0204631464246FFF7BFFD50B9A36C0BB9C4F84880E36C08F101080133E364D045E4
:40198000EED9E36C5BB167653B685A6922B1204631462B46FFF7CCFE236D01332365BDE8F88500BFA491FF1F2DE9F8459846274B054693F880300F46022B1646846B19D192
:4019C000436D984503D0C36C0BB1FFF77CFFB8F1000F0FD06B6D43450CD12B6DEA6C9A4204D9AC6C1C1901332B652CE028463946FFF769FF012E04F1010A01D9564505D9C6
:401A00002E6C012E01D9564500D902263446284639462246FFF768FD50B101345445F6D902240DE0284639462246FFF75DFD30B92846394622464346FFF772FF03E00134A1
:401A4000B442EFD300242046BDE8F885A491FF1FF8B507460E461546FFF7A6FF044628B1384631462A462346FFF74BFF2046F8BDB2F1FF3F73B504460D4614D0561A0136EE
:401A800011D001F033FB084B00211A8AA06800F035FE022300936068A3682946324601F071F80023E3737CBDA491FF1F2DE9F84F984690F8363004460C2B0D4616465AD08F
:401AC0004FF0FF3AD1463CE094F836003146FFF7B5FBB4F81CB0678E0BF1FF3B10EA0B0BE38B1DD1D840013F3F1802222846394601F0E4FAA38BAA689B0852F80B1079B944
:401B0000013B0BF1040BF8D13BE0494628465246FFF7AEFFB946BB46284601F044F9DA462946324601232046FFF7DCFD29460746324620460023FFF7FBFD2FB108F1FF388B
:401B40003E46B8F1000FBFD1284649465246FFF78FFF13E02946324601232046FFF7C2FD29460746324620460023FFF7E1FD2FB108F1FF383E46B8F1000FEBD14046BDE8A3
:401B8000F88F0AF1010B5F45BFD1C5E72DE9F845054601F0DBF8044608B90546D0E0284601F01CF8684E338A834208D338B10021284622460B4600F07EFF002804DA2046BF
:401BC00001F0DAF80025BBE004F5FF7000F0B3FE4AF65523984240F0AD8004F10B0000F0AAFE10F47E4F074600F0A480338A8342C0F0A080237C022B40F09C8094F80D801D
:401C0000B8F1000F00F096800021402205F1180000F074FD04F1130000F08DFE064620B904F1200000F06EFE064604F1160000F082FE824680B904F1280000F07CFE10F08C
:401C40008F0F77D104F1240000F05CFE824604F12C0000F057FEE862022385F83530C5F828A0AE6185F8348004F10E0000F063FE688604F1110000F05EFE95F835206B8E68
:401C8000288602FB0A3A7A0992B2B0FBF2F25244AF832A62092301219940B94201D1EB8302E00133102BF6D108FB07F7B61AB6FBF8F6AE636F623046FFF7F6FA202818BF44
:401CC000C5F82CA04FF0FF33202885F83600EB6332D104F1300000F02EFE00230146A5F844002246284600F0E6FE002822DB204600F008FE804604F5F27000F003FE074688
:401D000004F5FE7000F0FEFD104B984514D1104B9F4211D10F4B98420ED104F5F67000F0F1FD286404F5F47000F0ECFDB04203D8E86301E0002500E00125204601F01CF875
:401D40002846BDE8F88500BFA491FF1F5252614172724161000055AA00238B60837F202B01D102B942694A600A60704783680133836070472DE9F0410C46202105461F4655
:401D80009DF818604FF0000800F0B8FC10E014F8080036B9E52804D1B8F1000F01D1E03802E000F020FDC0B205F8080008F10108B845ECDBBDE8F0812DE9F74506460D4681
:401DC00008462849002A14BF92464FF0FF3A00F0CBFC804650B930462946022200F025FFB01C2021092200F089FC37E04FF0FF34002715F80780B8F1000F01D0574505D148
:401E0000B4F1FF3F08BF3C4664B925E04046FFF75EFA08B3B8F12E0F08BF3C4601370D2FE7D119E0082C17DC3F1B042F14DC30462946082223464FF00008CDF80080FFF7D3
:401E400099FF0123611C009306F10800691803227B1EFFF78FFF01E04FF001084046BDE8FE8500BFFC5200002DE9F74FD2F808B0436A4FEA4B18B8FBF3F8D36805469845C8
:401E80000E461446D2F8009001D20023D360B5F81EA0E368AAF1050A0BB9D4F804902BFA0AF7B9F1000F17D095F83420B8EB0303019206D04A4628463146FFF713FC814673
:401EC00040B3494605F11800FFF7FBF9019B591E01EA0707C11906E02B8E43FA0AF39F4218D2E96A79183046C4F80090C4F80C80012201F0E3F8304601F007F950B9013060
:401F000000FA0AFAB3680AF1FF3A0AEA0B0B03EB4B1000E00020BDE8FE8F2DE9FF4107460E4601A811461A460A9D9DF82C40FFF743FFC8B9384631462A46FFF795FF804662
:401F4000A0B1037883B101A90B2200F0C7FB38B998F80B3004EA0302A24201D1082B05D12846FFF703FFE5E74FF00008404604B0BDE8F0812DE9F04587B002AF04460E46D0
:401F8000154698469DF83CA039460E9A1830FFF7E3FE204631462A4643460097CDF804A0FFF7BBFF07B0BDE8F0852DE9F04500F1180785B005460C46384669469246FFF7B2
:401FC000CBFE284621466A46FFF74EFF06466846E846FFF7CBFE002E37D1BAF1000F02D12B8E002B35D12146009A00232846FFF785FB2146024600232846FFF729FD804692
:40200000204601F07EF8B8F1000F22D0AA8B0021A06800F073FB38464146FFF752F995F8347000257E1E361808E031462046012201F044F8204601F01DF8013E01357B1B5B
:40204000B3F1FF3FF1D1A66803E033780BB1E52BB7D1304605B0BDE8F08538B504461A3000F069FC054604F1140000F064FC45EA004038BD2DE9F0451D4685B007460E4625
:402080002A6010465C21904600F026FC4FF0000A0446A04508D108F10108C5F8008040465C2100F019FC044694B1C8EB0403002B0EDD10220192103A0292384631464246C4
:4020C000CDF800A0FFF77EF970B1FFF7C6FF824628685C2100F000FCA04604460028D8D10C9B0130C3F800A005B0BDE8F085F8B505460C461E461746DAB16FF01A031370D9
:40210000084600F04DFE16B94FF47A7608E007F11C0000F0F7FB6B6A5E1E3618B6FBF3F63846FFF79AFF2146024633462846FFF7BDFC607BF8BD00002DE9F04FD1F800807D
:4021400093B0D8F808700BAD044608930E464FF0FF333946284609920F939DF870A000F07DFE10AB009338462946224611ABFFF781FFD0B1F27A109B07920FAA0093029252
:40218000002338462946119A0193FFF71BF9044680B1C37A13F0100F07D10D9BDDF82CB0C3EB00094FEA691906E0284600F0A0FF0125A3E083468146099B002B3CD0002C26
:4021C00033D0524B5D6912E02B687BB1AA7A6AB19A8B4A450AD19A695A4507D19B68BB4204D14FF6F772328100257EE0ED68002DEAD10DF12C0C6146384622460123CDF8DE
:4022000018C0FFF774FFDDF818C018B14FF0FF3333816AE03E4B1B68DC6824B138466146109A0F9BA0472C4606E0BAF1000F03D1089A002A44D065E0089BEBB1CCB1E37ACF
:4022400013F0010F0BD0079A12F0150F07D04FF6FA733381BAF1000F01D1012500E000252046FFF7FAFE074604F11C0000F04AFB29E0BAF1000F45D0BAF1010F01D0002545
:402280001BE0ECB901F070FE214B20221B68019282B2000C03920490009402949D6838460BA9119A109BA84750B10D9ADDF82CB0C2EB00094FEA6919254628462F4602E052
:4022C0000125002007464FF0FF33C8F81030C8F818B0A8F81C90079AC8F8040012F0010308BF1846C8F800707060B6F908300BA835EA230528BF012500F0FAFE284613B06F
:40230000BDE8F08F01255046DCE700BFA491FF1FE880FF1F70B505460C461A3089B200F006FB05F11400210CBDE8704000F0FFBA2DE9F0470446BDF824700D4691460021CA
:4023400020229A46BDF82860DDF8208000F0D6F90B222046294600F068FC04F10E00394684F80BA000F0E3FA04F11000314600F0DEFA04F11600394600F0D9FA04F1180060
:40238000314600F0D4FA20464946FFF7C3FF04F11C004146BDE8F04700F0BFBA07B5426803460AB910460AE081680020009048681968DB6800F0C4FB003818BF01200EBDF5
:4023C0002DE9F047046805460F46A668FFF746F981468246002841D0D4F80080B8F1000F1BD14246304639462B46FFF7DDFA0246D8B11C4B6061C4F8108093F880302060CE
:40240000022B07D030463946FFF759FA10B10120BDE8F087B9F1010A20D03046394662692B46FFF7C1FA804628B94FF6FE732B810130BDE8F0870B4B93F88030022B05D0EC
:402440003046394662694346FFF75BFA2369C4F8148001332361BAF1010ADDE70020BDE8F08700BFA491FF1F2DE9F041836804460D4608460122A1699E8B00F01FFE28467E
:40248000B4F81C80AF6800F040FEF8B9013E06EA4816B6B2BE1906F11C00616800F03DFA21683046FFF736FF01F05EFD0446A1B206F1160000F03BFA06F11800210C00F09E
:4024C00036FA2846BDE8F04100F01BBEBDE8F0817FB50668B0F90830B568C3B9C37A13F0110F14D02946684600F0B8FC30466946FFF7BAFF064B6C4693F88030022B03D155
:4025000028466946FFF7DFF9684600F0F1FD7FBDA491FF1F03682DE9F04F9F68038995B001339BB2012B04460E46059201D90025CEE0394610AD0CA800F090FC3946284615
:4025400000F08CFC039626680023D6F808909A4609F118010791D9F82420059906924FF0FF32099308920A950291049320460CA9FFF726FF38B108A8FFF710FF5546002857
:4025800018BF00258FE03269069901324A43B9F81CB063680BF1FF3BD21A0BEA030B029B0798934228BF134601937169FEF789FE99F83430B9F81C206768013BB7FBF2F786
:4025C00003EA0707C719B9F81C300199CBEB03058D4228BF0D469D4228D0BBF1000F03D1626873689A420FD00DF1400840463946002200F063FD404600F087FD20B14FF60F
:40260000F9725546228154E01298039958442A460DF1400800F009FB40463946002200F04DFD404600F026FD90B141E0099B089A9A1897420AD008A8FFF7B0FE002837D1A6
:4026400001230993039B08970B9301E001330993029B03995B1B019A029363684919521BAA44ED186560736803919D42019207D91BB1194B93F880300BB901210491756061
:40268000019A1AB101374FF0000B9CE7029B002B7FF46CAF08A8FFF781FE04995546002818BF002529B1304610A9FFF7DDFE00E05546059A954205D0B4F9083013B94FF642
:4026C000F87323810CA800F013FD10A800F010FD284615B0BDE8F08FA491FF1F10B5002308E0C45C11F803C0013A0133644501D0012010BD002AF4D1104610BD70B50346A5
:4027000002E003F8011C013A1C4622B103F003050133002DF5D193081ED04FF001354D4308E044F8105C44F80C5C44F8085C44F8045C043B032BA44604F11004F1DC1C4680
:40274000002603E04CF80650013B0436002BF9D102F003020CEB8404002302E0E154013A0133002AFAD170BD002310F803C0CA5C624501D0012070470133002AF5D110462C
:402780007047002300E00133C25C002AFBD11846704710B500230BE0C45C11F803C0644501D0012010BDC4186478013314B1013A002AF1DC002010BD10B5002302E0C45429
:4027C000013A013303EB000C0AB9002308E0CC5C002CF4D1F9E700210CF80310013A0133002AF8D110BDA0F16103192B98BF00F0DF0070472DE9F0470022ADF5047D0C4648
:402800000127082113468146009700F0CDFB0546002853D03A463B46002620461421009600F0C2FB074620B9284600F03AFB013E46E0284600F0ECF880464146324638469A
:4028400000F0BFFA384600F08CFC38463146324600F0B7FA0DF10C0A284651464FF4007200F068FC064660B138465146324600F08FFDB04202D04FF0FF3603E0B8EB00085D
:40288000E8D10026284600F00CFB384600F009FB8EB983A93246484600F038FD83993246204600F011FD484601F0A0FA0146204601F0B8FA04E0204600F0C8FB4FF0FF36F2
:4028C00030460DF5047DBDE8F087FFF793BF01384018B0FBF1F07047C9B203E00BB918467047013003788B42F8D1704742780178431C42EA01205A789B7842EA002043EA3A
:40290000002070478378C27803EB0222437803EB0222037803EB0220704703460A0A03F8011B42700A0C090E5A70997070470170090A417070474278037843EA0220704766
:40294000094A0A4BC11C10B5146821F0030118680919814201D9002010BD11609A685868013220189A6010BD2892FF1F8081FF1F08B5FFF7E5FF00B9FEE708BDFFF7E0BF65
:4029800030B1044A9368013B93600BB9024A1360704700BF8081FF1F2892FF1F014B5860196070478081FF1F38B50546FFF7E0FF002104462A46FFF7A1FE204638BD0000A3
:4029C00010B5084CA37C0BB1002010BD4FF40073238201F0B9FAA37C012043F00103A37410BD00BFA491FF1F13B501A900F0FAFB044640B100F0C2FC032804D1204601994A
:402A000000F06EFD01E04FF0FF301CBDFFF7ECBF08B90138704703685868704708B583680BB10020984708BD08B583680BB10120984708BD10B504680079A468A04710BD24
:402A400037B59DF81850046800790095E468A0473EBD08B5036800799B69984708BD036810B55B69044623B10079984708B1002000E00120607110BD10B5437904460BB90B
:402A8000FFF7EDFF607910BDF7B504461F460E461546FFF7F1FF2046FFF7C6FF2A463146012320460097FFF7C5FF05462046FFF7B5FF2846FEBD10B504690919BDE81040EE
:402AC000FFF7E2BF2DE9F341044615461F460E469DF82080FFF7D0FF2046FFF7A5FF2B4631463A462046CDF80080FFF7A3FF05462046FFF793FF2846BDE8FC8130B50469D7
:402B00009DF80C5009190395BDE83040FFF7DABFF7B5044615461F460E46FFF7ADFF2046FFF782FF0023009331462B463A462046FFF786FF05462046FFF770FF2846FEBD7F
:402B400030B504699DF80C5009190395BDE83040FFF7DEBFF7B5044615461F460E46FFF78BFF2046FFF760FF0123009331462B463A462046FFF764FF05462046FFF74EFF99
:402B80002846FEBD30B504699DF80C5009190395BDE83040FFF7DEBF73B504460E461546FFF76AFF2046FFF73FFF00232A460093314601332046FFF743FF05462046FFF717
:402BC0002DFF002D14BF4FF0FF3000207CBD10B504690919BDE81040FFF7DEBF30B5054685B0FFF749FF2B6828791C694FF47B71002201ABA04708B1002001E0BDF80C004B
:402C000005B030BD70B506460D46FFF735FF336830791C694FF47B7100222B46A047002814BF4FF0FF30002070BD11F0030F70B584460B4632D110F0030F2FD19510044685
:402C4000AC4611E053F8106CACF1040C44F8106C53F80C6C44F80C6C53F8086C44F8086C53F8046C44F8046C10341033BCF1030FE8D8AB081B0100EB030CCB1815F0030539
:402C80000AD0284600215C584CF8014004310138F9D1AD00AC445B1902F0030213F0010F19462FD11CF0010F60462BD15410254610E031F8086C043D20F8086C31F8066C3E
:402CC00020F8066C31F8046C20F8046C31F8026C20F8026C08300831032DEAD8A108C9005B1814F003048C440AD0204600215D5A2CF8015002310138F9D16400A4441B19A6
:402D000002F00102614610E013F8040C043A01F8040C13F8030C01F8030C13F8020C01F8020C13F8010C01F8010C18460433032A8C4601F10401E7DC32B10023C15C0CF8D0
:402D4000031001339342F9D170BD0000094B10B5D8689A68002308E0114652F8084B1CB901230B60486810BD01338342F4D3002010BD00BFA491FF1F084B30B50022DC68A8
:402D80009B6808E05D6819460833854202D100230B6030BD0132A242F4D330BDA491FF1F01230373704700230373704710B1002282720260704718B1027B0AB1013A027354
:402DC0007047034608B901387047012A03D0022A03D062B105E0426801E002685268891805E04FF6FD7202814FF0FF3070475A688A4201D1002070474FF0000259601A81D0
:402E00000020704738B5FFF7DBFD20B3124C4200E2600001FFF7C8FD238AA060E0685843FFF7C2FDA568E168228A002304E005EBC3046060013380188B42F8D31020FFF740
:402E4000B3FD054C60612820FFF7AEFDA37CA06143F00203A37438BDA491FF1F38B510220D4600210446FFF749FCFFF76FFF08B9013038BDA0604FF0FF33002065602360B4
:402E8000A07338BD38B5837A044643B10568FFF71FFB2846FFF78FFF2046FFF787FF002038BD08B50368827A03B19B6822B11BB1FFF7E8FF002008BD012008BD08B9013068
:402EC0007047FFF7EEBF000038B5104B9C69217B59B921606160A16004F110001422FFF70DFC237B013323730DE0656A45B92820FFF744FD606218B129462822FFF7FEFB2C
:402F0000646A002CE3D1204638BD00BFA491FF1F38B50E4B5C69A17AE56839B920461022FFF7ECFB0123A372E5600CE045B91020FFF724FDE06018B129461022FFF7DEFB74
:402F4000E468002CE7D1204638BD00BFA491FF1F2DE9F74F06460020884691469B469DF830A09DF83470FFF7AFFF054608B9044610E0FFF7CDFF044660B180F80B90056049
:402F8000AE604046214652463B46CDF800B0FFF7D3F830B12046FFF709FF2846FFF70BFF00242046BDE8FE8F2DE9FF410C461F4604A9002341F8043D15469DF8286000F099
:402FC00011F98046B8B1039B0BB11B789BB1404600F0D4F900280EDD14F0150F01D0032809D1039939B1404622462B4600970196FFF7AEFF00E0002004B0BDE8F08100008B
:403000002DE9F3410646884600240E4D404655F83410E700FFF7A8FB10B9002C04DA0DE001340F2CF1D109E07D19A87929790090EA796B793046FFF7B7FF00E00020BDE844
:40304000FC8100BF00530000FFF7DABF37B500241021224601230094FFF7A6FF054608B9013806E00068FFF7A6FE2846FFF79EFE20463EBD10B5437B04460BB1012010BD31
:4030800040682168A268A37BFFF7A1FD10B10120607310BD207310BD10B5437B044663B9037B53B140682168A268A37BFFF78FFD08B1012363730023237310BD036870B532
:4030C000994204460D46164607D0037B0BB1FFF7E3FF00232560A673E37370BD10B50446FFF7ECFF0123E373237310BDFFF7D4BF10B50446FFF7D0FFA068BDE81040FFF7B2
:403100003BBE01230373FFF7C7BF10B50446407B08B1012010BDE37B5BB960682168A268A37BFFF7C8FC10B10120607310BD0122E27310BD30B592B188B1857A046875B1B1
:403140006CB190F80BC01CF0080C04D14FF6FB720281604630BDBDE8304000F01FBD002030BDC37A13F0150F02D14FF0FF30704700F0DEBD08B5436813B94FF0FF3008BDE6
:40318000984708BDF8B50C4617460023144D01E0ED6D01338342FBDB2B6828791B68984706460CB92046F8BDFFF7EBFA0530B84214DC22460020335C013223540130315C46
:4031C0000029F8D113464FF03A0C03F801CB2C7903303034547083F801C09970F8BD00BFC091FF1F2DE9F0470F463A210646FFF773FB044610B93446174D27E00378C6EB3F
:40320000000A5BB114F8013F43B162783A2A05D1A3F130085FFA88F8023401E04FF000080D4D2B6828791B6898478146FFF7A9FA504508D1484631465246FFF7AAFA10B963
:403240002B79434502D0ED6D002DEAD107B13C602846BDE8F08700BFC091FF1FF8B5174C064694F85B10E56D69B9602201272046FFF744FA84F85B70E5653046FFF77AFF81
:4032800000280EDA18E045B96020FFF777FBE06518B129466022FFF731FAE46D002CE0D10AE0074B2660DA6F0132DA670323207184F85B7084F85A302046F8BDC091FF1FC5
:4032C000A491FF1FFFF7CABF30B585B0019103A91446FFF787FF0546A0B100F04FF8032810D1012C03D0022C05D014B10AE0082302E0022300E004232846039901AA00F05F
:4033000021F901E04FF0FF3005B030BD73B50C4601A91546FFF766FF0646A8B100F02EF810F0010F10D0012D03D0022D05D015B10AE0082302E0022300E0042330460199FF
:40334000224600F058F901E04FF0FF307CBD38B504460D46FFF77DFB08B9013838BD2046FFF78AFB204600F0CDFD2046FEF70EFC08B184F8595094F8590038BD90F8593006
:4033800023B990F85A1009B1FFF7E1BF1846704730B51346BAB1B0B10268857A0AB1946804B900247DB172B16CB1C27A12F0100204D14FF6FA730381104630BD1A46BDE8BE
:4033C0003040FFF7A7B8002030BDFFF7E1BF00002DE9F04F8BB01C4605460992079100F0C3FD00228246214628461346FEF730FBDDF81CC0804608B9013867E0354B1FFABC
:403400008AFB1B684FEA1A4A4FF0100900260090CDF804900296CDF80CB0CDF810A09F68284621466246099BB847002846D02046FFF7B6FC2046FFF759FEAA8B3146A06818
:40344000FFF75CF9414605F11800FDF73AFF0890089920460122FFF741FEA768424638464B461D490096CDF804B0CDF808A0FEF75FFF099A07F1200018494B460096CDF865
:4034800004B0CDF808A0FEF753FF2046FFF72EFEA0683146AA8BFFF731F908E0089B2046F1180122FFF70AFE2046FFF7E3FD95F8343001369E42F1DB002007E02846214641
:4034C00042460123FEF7F2FA6FF001000BB0BDE8F08F00BFE880FF1FA8530000B453000070B58AB0054604AC0E4620462946FFF7B5FC09AB009328462146324608ABFEF753
:40350000B9FDB8B10898FFF73CF998B1099B2846009321460023089A01930293FDF752FF064638B928460899099A2346FFF750FF002801DA4FF0FF3604A8FFF7D9FD304617
:403540000AB070BD2DE9F0418AB0064604AD88462846314617461C46FFF780FC08AB009330462946424609ABFEF784FD20B92846FFF7BEFD01243AE0089B294600933046D3
:403580000023099A01930293FDF71CFF054608B9012429E0012C0AD1C27A3B7812F0100F14BF43F0100303F0EF03C37218E039680E0C042C89B209D0082C0DD0022C0FD172
:4035C0000E30FFF7B4F905F1100006E01630FFF7AEF905F1180000E012303146FFF7A7F904A8FFF7DDFB002404A8FFF781FD20460AB0BDE8F0812DE9F0418AB0064604AD6C
:403600000F462846314614469846FFF727FC08AB0093304629463A4609ABFEF72BFD20B92846FFF765FD012429E0089B3046009329460023099A01930293FDF7C3FE08B936
:40364000012419E008F1FF38B8F1070F13D8DFE808F0040712091212120DC37A23700AE00E3000E01630FFF74DF903E01230FFF762F900042060002404A8FFF739FD204674
:403680000AB0BDE8F08100002DE9F04F8FB08B469DF86010069207930991BDF86420BDF86C309DF8701005460B92BDF868800C930D91FFF7CEF90028C0F2DF81002385F80C
:4036C0005930FFF743FB0446002800F0D481AC4B1B8A4345C0F0CF81B8F1000F00F0CB81079A06994FEAC803002A08BFFF220A93A44B0792002908BF3F2102220C9F14464A
:4037000006912A4684461D460C996B698F422E7C00D13FB9202E03D0DDF82CA0012708E0374604E0202E02D0DDF82CA001E04FF0000A41464FEA4A1003920593CDF810C09E
:40374000FFF7C5F8C7EB0B090999C0EB090999FBF1F070430A99FFF7BAF809994000C0EB090999FBF1F906FB09F00A99FFF7AFF8039A0890059BDDF810C02CB940F6F471AD
:40378000894508DD894601E0994504DA013C083DB4F1FF3FB8D164466046002115464246FEF7ACFF6FF01603204600F8033B08227549FFF701F804F10B004146FFF7B7F8F1
:4037C000099A04F10E0062733946FFF7B0F80223237404F111005146FFF7A9F8BBF5803F06D204F113001FFA8BF1FFF7A0F804E004F120005946FFF790F86FF00703637578
:4038000004F118000699FFF792F804F11A000799FFF78DF804F11C002969FFF77EF8202E6FF07F031DD084F82430A93384F8263004F127005549FFF770F8089B04F11600C3
:4038400099B2FFF774F8524904F12B000B22FEF7B3FF504B504904F136000C2E18BF194624E084F84030A93384F8423004F124000899FFF752F804F12C000221FFF74DF80A
:4038800004F130000121FFF752F8062384F8323004F143003D49FFF740F83D4904F147000B22FEF789FF3D4904F152000822FEF783FF04F5FF71084607914AF65521FFF7B9
:4038C00036F80021284622460B46FFF780F90028C0F29F80202E08D10621002328462246FFF775F90028C0F29480002142462046FEF704FF089A02235200009328463946B1
:4039000023460692FFF73EF90028C0F282806FF00703237007330C2E6370A3700DD0202EE3700AD1201D6FF07041FEF7F6FF04F108006FF07041FEF7F0FF02232846394694
:403940002246FFF744F9002863DB089B2846D91922460223FFF73BF900285ADB002142462046FEF7CBFE069AD119BAF1000F17D04FEA4A12012300932846B2FBF8F213E0F3
:40398000A491FF1FC05300004C54000067452301D8530000555400005E540000675400000123099A009328462346FFF7EBF800282FDB202E31D1424600212046FEF79EFEC4
:4039C00020462F49FEF7A9FF04F5F2702D49FEF7A4FF04F5F47009F1FF31FEF79EFF032104F5F670FEF799FF07984AF65521FEF79EFF0121002328462246FFF7E8F80028BA
:403A000007DB0721002328462246FFF7E0F8002803DA2046FFF7B0F92DE02B6933B30D9B23B30021284622460B46FFF72DF8E8B90C2E94F8C23102D0102E06D002E04FF0E2
:403A4000010B09E04FF00B0B06E0BBF5803F34BF4FF0040B4FF0060B5B4507D0002184F8C2B1284622460B46FFF796F82046FFF783F9002001E04FF0FF300FB0BDE8F08FBA
:403A80005252614172724161F0B58BB007AD044600210C222846FEF731FE204600F032FA20462946FFF7AEF823690BB163690893089911B94FF0FF3020E0BDF81E20BDF858
:403AC0001C30BDF82460002000E001300C4D4FEAC00C05F1240757F83070B942F5D80CEB050090F82850408D00950190002003900130049020460296FFF7C6FD0BB0F0BD54
:403B0000C053000030B504468BB00D4600292FD0FEF79FFF002802DA4FF0FF302AE0204600F0F0F9AA6807AB22B920461946FFF769F802E007CA83E80700236923B1636933
:403B4000089A9A4288BF08932978BDF81E2000916988BDF81C300191BDF8241020460291A9880391A97904910899FFF78DFD01E0FFF78AFF0BB030BD07B5426803460AB943
:403B800010460AE081680020009048681968DB68FEF7B4FF003818BF01200EBD2DE9F04F0368B0F9085095B0044689469F68002D40F0B78041685868814203D34FF0FF31EA
:403BC0002181AFE0411A8A4228BF0A46029222B94FF0FF322281029DA4E01B68002B00F0A080394610AE0CA8FFF738F939463046FFF734F9D4F800B0029ADBF80870AA4650
:403C000007F118030693796A4FF0FF330591099508930A96049220460CA9FDF71FFD00286ED1DBF81030059901334B43626804999B1A994228BF19460391BB8BDBF814106C
:403C4000013B134006980193FDF73BFBF98B656897F8342035FA01F1013A019B02EA0101CDF81CB000EB01081E46BB46BBF81C30039A9D1B954228BF15469D4211D010AF69
:403C8000384641460022FFF719FA3846FFF73DFA002835D11299484671182A46FEF7C5FF12E0099B089A9A1890450BD008A8FFF763FF00283AD10123CDF820800993CDF851
:403CC0002C9001E001330993049B03995B1B04936368A9445B19491BAA446360039103D008F101080026C1E7049A5F46DDF81CB0002A90D108A85546FFF73EFFB0B900E061
:403D00005546029B9D4205D0B4F9083013B94FF6F97121810CA8FFF7EBF910A8FFF7E8F900E00025284615B0BDE8F08F0025EBE72DE9F04FD0F8008085B0D8F808600446D1
:403D400031466846FFF78AF86268D8F804309A422DD22768736A694603EB02097A68B9FBF3F903EB020BBBFBF3FB3A6809F1FF333046FDF7B7FC8246694652460123304634
:403D8000FDF7B0FCC9EB0B0B02465B4669463046FDF78CFE304669465246FDF790FD4FF00003C7F814A0C7F81090FB830EE002D84FF0FF350EE0013A626020466946FEF70D
:403DC000FFFA636805460133636018B963680025C8F8043040466946FEF746FB6846FFF787F96C46284605B0BDE8F08F37B54FF0FF3469468DF80740FFF7F4F9054670B158
:403E0000FFF7BCFA10F0010F09D0284600990DF107020123FFF7EFFB08B18DF807409DF807003EBD1FB58DF8071003A9FFF7DAF9044658B1FFF7A2FA032807D120460399F0
:403E40000DF107020123FFF77DFB01E04FF0FF3004B010BD0378E92B01D101207047EB2B01D0002070478078902814BF00200120704708B500F5FF70FEF75DFD4AF655233F
:403E8000984214BF0020012008BD01EB001000F5E370FEF737BDF0B50D4685B01446064658B352B300210B46FEF7EEFD002824DB2046FFF7DEFF00B32046FFF7CBFF10B1F3
:403EC0000024274616E02146FFF7DFFF074604F5E570FEF717FD01A904463046FEF792FE5CB157B1E219FF23120AB2FBF3F2029B9A4202D81DB12C6001E04FF0FF3738460C
:403F000005B0F0BD73B50446FEF768FE0646FEF71DFF0C4B05461B8AB3420DD366B1204601A92A46FFF7B7FFB0F1FF3F04D02061019B6361002400E0FF242846FEF71CFF5D
:403F400060B27CBDA491FF1F80B500AF4FF480510348FEF723FD0348FFF7B4F900BF80BD8C81FF1FB854000080B485B000AF0023FB810023BB8100237B8101233B810123F1
:403F8000FB800023BB80FB895B089BB21A46BB895B011A447B89DB0213443B603A89FB885B011A44BB885B0213441B043A6813433B603B6818461437BD4680BC704700BF19
:403FC0004FF6FF7070470000014B1868704700BF8C91FF1F00487047D854000000F098BD37B501220DF10701054600F0A9FD9DF80740FF2C14BF0A240724284601220DF1B1
:40400000070100F09DFD9DF80700FF2803D1013CE4B2002CF1D13EBD37B50469857828460DF10701012200F08BFD9DF807300BB1002003E0013CF2D14FF0FF303EBD37B556
:404040004FF0FF3305460C468DF8073006E028460DF10701012200F08FFD013C002CF6DC3EBD000038B5094C2368032B02DD4FF0FF3509E0DDB2013323601420FEF794FC12
:4040800004EB850460608570284638BD8C91FF1F08B5034B4FF400711B68984708BD00BFEC80FF1F4FEAD20CACEBD103CCF10F0C10B501336044002410F801CB013B4CEAA5
:4040C0000424F9D101F00703511A02228A40DC40013A04EA020010BD7FB5130E85788DF80530130C01F03F018DF80630130A41F040018DF8073000238DF808208DF804109B
:404100001A4601A911F802C000215B00DBB283EA0C0E1EF0800F18BF83F009030131082904D04FEA4C0C5FFA8CFCEEE70132052AE7D15B0043F001038DF809308678C46815
:404140000122304603A900F0FBFC9DF80C30FF2B04D00CB9FF2009E0013CF1E7284601A9062200F009FD2846FFF73AFF04B070BDF7B5847806460F4620460121FFF75FFF89
:40418000204600F011FC304609210022FFF7A4FF8DF8070028BBF6680546012220460DF1060100F0CDFC9DF80630FE2B06D0FC2B04D00135ADB2B542EFD112E00DF10705D5
:4041C00020463946102200F0BBFC29462046012200F0B6FC29462046012200F0B1FC002500E0FF25204600F0F3FB20460121FFF726FF2846FEBD00002DE9F04F9B46494BCF
:4042000089B003EB800305925C684A02029103924FF00309029AA578E678039B2846022E08BF13461E4600F0D3FB01212846FFF706FFBBF1010F0CBF4FF0110A4FF0120A5E
:40424000284600F0B1FB204651463246FFF744FF002851D1059F5E46A378E268B44604924FF000081E460FE0012230460DF11F01CDF804C000F064FC9DF81F20DDF804C068
:40428000FE2A05D008F10108049B9845ECD333E0284639464FF40072664600F051FC0222284607A900F04CFC9DF81C30384601939DF81D80FFF7ECFE4FF6FF729042019B83
:4042C0000CD048EA0328404508D0BAF1120F13D120460C210022FFF7FFFE0DE0013E02D007F50077B8E7BAF1120F07D120460C213246FFF7F1FE01E04FF0FF36284600F079
:4043000067FB28460121FFF79AFE3EB1B9F1000F02D009F1FF397DE74FF0FF36304609B0BDE8F08F8C91FF1F2DE9F04F99464C4B87B0029203EB80039DF840205D68009199
:4043400003926B78002B40F085804B0201930327009BAC78EE78019A2046022E08BF1A46164600F035FB01212046FFF768FEB9F1010F0CBF4FF0180A4FF0190A204600F0DF
:4043800013FB284651463246FFF7A6FE8DF81700002850D120460121FFF751FE029ECB46B8463046FFF774FE0DF11707BAF1180F0CBFFE23FC2301228DF817308DF8150017
:4043C000030A394620468DF8143000F0D5FB204631464FF4007200F0CFFB0222204605A900F0CAFB01222046394600F0A9FB9DF8173003F01F03052B1CD12846FFF70CFEF1
:40440000C0B9039A0AB906F50076BBF1010BC8D1BAF1190F474611D106A96FF00203204601F8013D012200F0A7FB2846FFF7F4FD20B100E047464FF0FF3600E000262046C7
:4044400000F0C6FA20460121FFF7F9FD26B10FB1013F7DE74FF0FF36304607B0BDE8F08F8C91FF1F2DE9F04F877887B0044638460D4600F099FA20463A210022FFF72CFEB1
:40448000064638B1384600F0A3FA38460121FFF7D6FD58E00DF1140804224146384600F04FFB4046FEF722FA8046384600F090FA01213846FFF7C3FDB8F1000F28F07F02A0
:4044C000B8BF4FEA987BD2B240F272634FEA1828B8BF0BF0010B1FFA88F8002A14BF1A460022012111EA080F05D10136F6B24900102E89B2F6D140F27260824233460DD0CF
:404500006422724302F5FA6208E011EA080F07D049000133013689B2DBB2F6B20F2EF4D964214B434FF6FE7103F5FA6302EA01014FF6FC72384603EA020200F0B5FA10F023
:40454000FF0F40F099804FF0FF3092E028467E217F22FFF7A7FD8246EB78DFF82C8103F0030203F0780308EBD30358F822101B7C3846594389B200F053FA0646002877D078
:404580006B7803F00702DB1003F00F0308EB82024344126A93F810800292B8F1000F67D0A978284603911C221A21FFF77BFD0190BAF1000F1FD1502153222846FFF772FD16
:4045C0004FF0010909FA00F92F2131222846FFF769FD1FFA89F982463E21284649224FEA5929FFF75FFD0AF1020A09FA0AF9013000FB09F910E0BAF1010F01D0012038E071
:40460000284630214522FFF74DFD4FEA8029BBF1000F01D00223E37008FB06F2029B0399B2FBF3F2642303FB01225A437343D208DB089A4294BFE260E360FA235E43019BA2
:40464000F6089A400C21B24294BF2261266128460D22FFF727FD0546384600F0CDF94FF4007128436070A180C4F80890002000E0FF2007B0BDE8F08FE378A778012B3FF477
:4046800065AF4FF0000A67E770540000F0B5857887B004464FF4C871284600F0C1F9B0F5C87F00F2CC804CF25033E3600026284600F08EF90A212846FFF7C1FC624B93E827
:4046C000030001902846ADF8081000F06DF9062201A9284600F050FA2846FFF781FC0746284600F075F901212846FFF7A8FC17F0010F03D10136052ED9D1A0E0284600F02A
:4047000053F9082120464FF4D572FFF7E5FC10F0040F52D0284600F05BF9A5784FF4FA66284600F041F9002237212046FFF7D4FC28460121FFF783FC292100222046FFF78B
:40474000CBFC0746284600F043F928460121FFF776FC17B90123E3701EE017F0040F01D1013EDDD14FF4FA66284600F01DF9012100222046FFF7B0FC0746284600F028F946
:4047800028460121FFF75BFC0FB9E77004E0012F55D1013EE8D152E001AD20462946FFF7E7FC00284BD120462946FFF75BFEC0B2002844D10123237043E00422A07805A960
:4047C00000F0BEF9284600F003F99DF81730AA2B35D19DF8163003F00F03012B2FD1A5784FF4FA66284600F0DFF8002237212046FFF772FC28460121FFF721FC29214FF090
:4048000080422046FFF768FC0746284600F0E0F828460121FFF713FC0FB1013EE2D101AE20463146FFF7A4FC48B90125E57020463146FFF717FEC0B208B9257001E04FF0BE
:40484000FF3007B0F0BD00BFB054000010B5084B03EB80035C6823783BB9FFF7BFFB20B12046BDE81040FFF711BF4FF0FF3010BD8C91FF1F38B51D46154BA1F57B7103EBCE
:4048800080035C68072918D8DFE801F00A17171704041719204600211422FDF72FFF0CE0237833B92046FFF7F1FE10B14FF0FF3038BDA3882B81A3686B60002038BD204669
:4048C000FEF75EF8024B00201A68013A1A6038BD8C91FF1F80B582B000AF0346FB71FB79002B11D1154B1B78002B1FD1134B01221A7000F053FA01213B2000F069FA00F037
:4049000033FA00F09FF911E00C4B1B78002B0FD10A4B01221A7000F041FA01213B2000F057FA00F021FA00F08DF901E000BF00E000BF00BF0837BD4680BD00BFA091FF1FE5
:4049400080B584B000AF03460A46FB711346BB71FB79002B11D1BB79184600F0ADF900BF00F08EF9034603F00103DBB2002BF7D000F0BCF90346FB7311E0BB79184600F028
:404980009BF900BF00F07CF9034603F00103DBB2002BF7D000F0AAF90346FB7300BFFB7B18461037BD4680BD80B582B000AF0346FB71FB79002B03D1002000F0D5FA03E01C
:4049C000002000F0D1FA00BF00BF0837BD4680BD80B582B000AF0346FB71FB79002B03D1012000F0C1FA03E0012000F0BDFA00BF00BF0837BD4680BD80B485B000AF0346CC
:404A0000FB71FB79002B02D10023FB6002E00023FB6000BFFB6818461437BD4680BC704780B584B000AF03460A46FB711346BB80BB88B3F5C87F03D24FF4C873BB8006E0A2
:404A4000BB88B3F57A6F02D94FF47A63BB80BB885B00FB81FB8945F6C052B2FBF3F39BB2BB60FB79002B0CD100F098F9BB689BB2013B9BB20121184600F0AAF900F074F9E0
:404A80000CE000F08BF9BB689BB2013B9BB20121184600F09DF900F067F900BFBB8818461037BD4680BD00BF80B485B000AF0346FB710B46BB8013467B80FB790033032B1F
:404AC0000FD8BB8840F6E442934207D87B8840F6E342934202D90123FB6012E00023FB600FE0BB8840F6E442934207D87B8840F6E342934202D90123FB6001E00023FB6051
:404B000000BFFB6818461437BD4680BC704700BF80B584B000AF0346FB71FB791846FFF7D9FEFB790033032B02D80223FB6002E00223FB6000BFFB6818461037BD4680BDF1
:404B400090B585B000AF0346B9607A60FB73BC68631CBB60FB7BFF211846FFF7F1FE034623707B68013B7B607B68002BEFD100BF1437BD4690BD00BF80B584B000AF0346AD
:404B8000B9607A60FB73BB685A1CBA601A78FB7B11461846FFF7D4FE7B68013B7B607B68002BF0D100BF1037BD4680BD80B500AF084B0F221A7000F0A7F800F061F800F093
:404BC0006DF8054B00221A70044B00221A7000BF80BD00BF83640040856400408264004080B582B000AFFCF7E3F90346FB71124A114B1B78DBB243F02003DBB213700F4AF7
:404C00000E4B1B78DBB243F01003DBB213700C4A0B4B1B78DBB243F01003DBB21370FB791846FCF7C9F900F01FF800F023F800BF0837BD4680BD00BF93640040956400407D
:404C40009264004080B500AF064B1B78002B04D1FFF7ACFF034B01221A70FFF7C1FF00BF80BD00BFA191FF1F80B400AF00BFBD4680BC704780B400AF00BFBD4680BC7047A9
:404C800080B483B000AF044B1B78FB71FB7918460C37BD4680BC70476564004080B483B000AF044B1B78FB71FB7918460C37BD4680BC70476264004080B483B000AF0346A8
:404CC000FB7100BF074B1B78DBB203F00403002BF8D0054AFB79137000BF0C37BD4680BC704700BF656400404264004080B483B000AF044B1B78FB71FB7918460C37BD46C2
:404D000080BC70475264004080B582B000AF01E0124B1B78124B1B78DBB203F02003002BF6D1FCF745F90346FB710E4A0D4B1B78DBB243F00103DBB213700A4A094B1B78E6
:404D4000DBB223F00103DBB21370FB791846FCF733F900BF0837BD4680BD00BF52640040626400409264004080B400AF094A094B1B78DBB243F00103DBB21370064A064BCD
:404D80001B78DBB243F00103DBB2137000BFBD4680BC7047A2430040B243004080B400AF094A094B1B78DBB223F00103DBB21370064A064B1B78DBB223F00103DBB21370C4
:404DC00000BFBD4680BC7047A2430040B243004080B584B000AF03460A46FB8013467B7100F0B4F80346FB7300F0A4F80346BB81FA88BB899A4200F08880464B1B78DBB284
:404E000003F00103FB72FB7B002B20D1BB89002B02D0FB88002B1AD1BB89002B0BD13E4AFB8813803D4A3D4B1B78DBB223F04003DBB2137069E0394A384B1B78DBB243F082
:404E40004003DBB21370344AFB8813805DE0FB7A002B33D0324B00221A70324B01221A70314B00221A70314A304B1B78DBB203F07F03DBB21370294B1B78DBB203F00803C3
:404E8000002B02D0FB88002B18D1294ABB891380234B07221A7000BF214B1B78DBB203F00103002BF8D11B4A1A4B1B78DBB223F00103DBB213701A4B00221A70154B1B78A8
:404EC000DBB203F00103002B13D0194AFB881380134A7B79002B01D0032300E00123137000BF0F4B1B78DBB203F00103002BF8D10BE0094AFB8813800649064B1B78DAB276
:404F0000FB7A1343DBB20B70FFE700BF1037BD4680BD00BFA24300408040004082400040014000401040004014400040084000400240004080B400AF034B1B889BB218465E
:404F4000BD4680BC704700BF8040004080B400AF044B1B78DBB203F00703DBB21846BD4680BC70478240004080B485B000AF0346FB710B4B1B78DBB223F02003FB73084912
:404F8000FB795B01DBB203F02003DAB2FB7B1343DBB20B7000BF1437BD4680BC704700BF00510040014B1868704700BF5081FF1F0E4B70B51E460E4C0025E41AA410A542A3
:404FC00004D056F8253098470135F8E700F088FA084B094C1E46E41AA4100025A54204D056F8253098470135F8E770BDEC540000EC540000EC540000F454000010B5431E44
:405000000A44914204D011F8014B03F8014FF8E710BD000000000000537465702300000053442043415244204E414D450000000053442063617264206E616D653A00000012
:405040004661696C656420746F2067657400000053442063617264206E616D65000000005344204341524420464F524D415400005344206361726420666F726D61740000C2
:405080005375636365656465640000004661696C656400004449524543544F525900000044697200224469722220637265617465640000004661696C656420746F206372BA
:4050C00065617465000000006469726563746F727900000046494C45000000007700000046696C6520000000776173206F70656E6564000030313233343536373839000012
:40510000223031323334353637383922000000007772697474656E20746F2066696C65004661696C656420746F207772697465006461746120746F2066696C65000000005E
:4051400046696C652077617320636C6F736564004661696C656420746F20636C6F73650066696C6500000000434F5059000000005C4469725C66696C65312E74787400001B
:4051800046696C652077617320000000636F7069656420746F202244495222004661696C656420746F20636F707900004578616D706C652070726F6A65637400636F6D7075
:4051C0006C6574656400000028000000300000003800000040000000480000004800000048000000480000007881FF1F7881FF1F7881FF1F7881FF1F7881FF1F7881FF1F27
:405200007881FF1F7881FF1F7881FF1F7881FF1F7881FF1F7881FF1F0000004808020048080000488800004808010048880100482802004838020048B8020048380300488F
:40524000B803004838040048B804004838050048B8050048FF3F00001000000010000000FFFF01002000000020000000FFFF07002000000040000000FFFF1F0020000000DA
:4052800080000000FFFF3F004000000080000000FFFFFF034000000000200000FF0F000002100000FF7F000002200000FFFF000004200000FFFF030008200000FFFF070001
:4052C00010200000FFBF0F00103F0000FF7F1F00203F0000FFFF3E00403F0000FFFF7D00803F0000FFFF7D00FF3F000075140000B313000059130000000000002E2E0000A1
:4053000078530000080001007A5300000A0001007D530000140100017F530000160100018253000015000101845300001700010187530000180001008A5300001A0001002A
:405340008E5300001A000100925300001C010001955300001E010001995300001E0100019D5300001D000101A05300001F000101A45300001F0001017200726200770077AB
:4053800062006100616200722B00722B620072622B00772B00772B620077622B00612B00612B620061622B002E20202020202020202020002E2E20202020202020202000D0
:4053C0000C0000000000000010000000F50F000020000000F5FF00004E4F204E414D452020202000000100000100200000020000010040000008000001008000001000001D
:405400000100000100400000020000010080000002000001000004000400000200000800080000020000100010000002000000010800000000000002100000000000000447
:4054400020000000FFFFFFFF400000004D5357494E342E31004641543136202020004641543132202020004641543332202020000A00000064000000E8030000102700003F
:40548000000A0C0D0F14191E23282D32373C41508096980040420F00A086010010270000E8030000640000000A000000010000004000000000950000D53F0000654000003C
:4054C000F941000029430000754800004D480000DD3F0000C93F00006D6D630043000000F8B500BFF8BC08BC9E4670478D010000ED090000F8B500BFF8BC08BC9E4670478E
:405500006901000018550000C880FF1F90000000D8100000000000000000000046696C652E7478740000000000366E01C05D0000180000000000E02EEC520000C13F000082
:405540000000000000000000000000000000000000000000000000000000000000000000DC54000000000000000000000000000000000000000000000000000000000000FB
:405580000000000000000000000000000000000000000000000000000000000000000000F080FF1F000000000000000000000000000000000000000000000000000000005D
:4055C00000000000000000000000000000000000000000000000000000000000000000000000000000000000000000000000000000000000000000000000000000000000AB
:40560000000000000000000000000000000000000000000000000000000000000000000000000000000000000000000000000000000000000000000000000000000000006A
:40564000000000000000000000000000000000000000000000000000000000000000000000000000000000000000000000000000000000000000000000000000000000002A
:4056800000000000000000000000000000000000000000000000000000000000000000000000000000000000000000000000000000000000000000000000000000000000EA
:020000040003F7
:0200000480007A
:400000000101000000000000DC340000D4000800213F1E400C34D00024341000114B22300000800008080075DC20000200140020D0000C3430140F0030070F7880004000D6
:4000400000080203000050006503100004FEBBCD3FFFFFFF2200F008040000004000000004040404000000010000C00040011011C001001140014001000000000000000000
:4000800000000000000000007F018000000400001F402000C0220208800100000008FF2100016000C001010090404000C0070418C010080000019F00FF00003F0040000814
:4000C000002800000000014400000000000000000000000000000000000000000000022C040400040000000100000000000000000000000000000000000000000000000058
:40010000000000000000000095004200680000001000680004000300680000008900160000000000680000006800000093002400680000000000000007000000780080000C
:400140000000220000004000000000000000000000000000000000000000000000000000040000000000000100000000000000000000000000000000000000000000000018
:40018000000000000000000068000300000010000011000200000C0000000000010132240476530000420001000000700000020000000108000000000000700800070F70C4
:4001C0000020000000000040000000000000000000000000000000000000000009000000040400040000000100000000000000000000000000000000000000000000000089
:400200000000000000000000000000000000000000000000000000000000000F000000000000000000000000010000000000000001000100000000000000000000000000AC
:40024000000000000000000000000000000000000000000000000000000000000000000020000200000000000000000000000000000000000000000000000000000000005C
:40028000000000000000000000000000000000000000000000000000000000000000000000000000000000000000000000000000000000000000000040200050004400400A
:4002C0000008800100080800080900000000202040A000000044010000000000008010200000000000002100000000000000144000000000200000000000000000000000AA
:40030000000000000000000000000000000000000000000020080240000000000080000000000000000000000000000000000000000000000000000000040000008000004F
:40034000000000000000000000018041400000000008225000000000180C050000000000000000000000000000000000000000000000000000000000BF006D006E0000003E
:400380000000A00070002000000000000000F00010000000000000000000000000000000000000000000000000000000000000000000000000000000A000004022000012F9
:4003C000002441000008400A288000020022004000010000208C421216200000A0040E400005200228000202200049000000084296000001A00000010000000000888000CB
:4004000001000040000A0A00000000000040220D0000000000000000400000000A0000206823821200000000000001010000000000000000000000000000800000000000ED
:400440000A02000800000000000000000000000000000000000000000000000000000000000000000000000000000000000000000000000000000000FB00FF00DF0000008F
:400480000000FF00DF00BF00D000300000000000710000000000000000000000000000000000000000000000000000000000000000000000000000000400000000004000EA
:4004C00000000000000000000000000008000000000000000000000000000000000040000000000000000000000000000000000000000000000000000000000000000000B4
:40050000000000000000000000000000000000000000000000000000000000000000C0000000000000000000000000000000000000000000000000000000020000000000F9
:40054000000000000000000000000000000000000000000000000000000000000000000000000000000000000000000000000000000000000000000000000000000000007B
:4005800000000000000000000400000000000000000000000000800000000000000000000000000000000000000000000000000000000000000000000000020000000000B5
:4005C00000000000000000000000000000000000000000000000000000000000000000000000000000000000000000000000000000000000000000004000000000000000BB
:4006000000000000000000000000000020002000000000000000000080000000000000000000000000000000000000000000000000000000000000000423230003000000AD
:40064000000B0B0000000000007F7F000000000000000000000000000000000000000000000000000000000000000000000000000000000000000000000000000000000066
:40068000000000000000000000000000000000000000000000000000000000000000000000000000000000000000000000000000000000000000000000000000000000003A
:4006C00000000000000000000000000000000000000000000000000000000000000000000000000000000000000000000000000000000000000000000000000000000000FA
:4007000000000000000000000000000000000000000000000000000000000000000000000000000000000000000000000000000000000000000000000000000000000000B9
:400740000000000000000000000000000000000000000000000000000000000000000000000000000000000000000000000000000000000000000000000000000000000079
:0200000490006A
:0400000000004005B7
:0200000490105A
:04000000BC90ACAF55
:0200000490303A
:02000000F40A00
:0200000490402A
:4000000000000000000000000000000000000000000000000000000000000000000000000000000000000000000000000000000000000000000000000000000000000000C0
:400040000000000000000000000000000000000000000000000000000000000000000000000000000000000000000000000000000000000000000000000000000000000080
:400080000000000000000000000000000000000000000000000000000000000000000000000000000000000000000000000000000000000000000000000000000000000040
:4000C0000000000000000000000000000000000000000000000000000000000000000000000000000000000000000000000000000000000000000000000000000000000000
:0200000490501A
:0C00000000012E16106900012E39047357
:00000001FF